{
  "abi": [
    {
      "inputs": [
        {
          "internalType": "contract PurchaseToken",
          "name": "_paymentToken",
          "type": "address"
        }
      ],
      "stateMutability": "nonpayable",
      "type": "constructor"
    },
    {
      "anonymous": false,
      "inputs": [
        {
          "indexed": true,
          "internalType": "address",
          "name": "creator",
          "type": "address"
        },
        {
          "indexed": true,
          "internalType": "address",
          "name": "ticketCollection",
          "type": "address"
        },
        {
          "indexed": false,
          "internalType": "string",
          "name": "eventName",
          "type": "string"
        },
        {
          "indexed": false,
          "internalType": "uint256",
          "name": "price",
          "type": "uint256"
        },
        {
          "indexed": false,
          "internalType": "uint256",
          "name": "maxNumberOfTickets",
          "type": "uint256"
        }
      ],
      "name": "EventCreated",
      "type": "event"
    },
    {
      "anonymous": false,
      "inputs": [
        {
          "indexed": true,
          "internalType": "address",
          "name": "holder",
          "type": "address"
        },
        {
          "indexed": true,
          "internalType": "address",
          "name": "ticketCollection",
          "type": "address"
        },
        {
          "indexed": false,
          "internalType": "uint256",
          "name": "ticketId",
          "type": "uint256"
        },
        {
          "indexed": false,
          "internalType": "string",
          "name": "holderName",
          "type": "string"
        }
      ],
      "name": "Purchase",
      "type": "event"
    },
    {
      "inputs": [
        {
          "internalType": "string",
          "name": "eventName",
          "type": "string"
        },
        {
          "internalType": "uint256",
          "name": "price",
          "type": "uint256"
        },
        {
          "internalType": "uint256",
          "name": "maxNumberOfTickets",
          "type": "uint256"
        }
      ],
      "name": "createNewEvent",
      "outputs": [
        {
          "internalType": "contract ITicketNFT",
          "name": "ticketCollection",
          "type": "address"
        }
      ],
      "stateMutability": "nonpayable",
      "type": "function"
    },
    {
      "inputs": [
        {
          "internalType": "address",
          "name": "",
          "type": "address"
        }
      ],
      "name": "eventCreators",
      "outputs": [
        {
          "internalType": "address",
          "name": "",
          "type": "address"
        }
      ],
      "stateMutability": "view",
      "type": "function"
    },
    {
      "inputs": [
        {
          "internalType": "address",
          "name": "",
          "type": "address"
        }
      ],
      "name": "eventDetails",
      "outputs": [
        {
          "internalType": "string",
          "name": "eventName",
          "type": "string"
        },
        {
          "internalType": "uint256",
          "name": "price",
          "type": "uint256"
        },
        {
          "internalType": "uint256",
          "name": "maxNumberOfTickets",
          "type": "uint256"
        },
        {
          "internalType": "uint256",
          "name": "ticketsSold",
          "type": "uint256"
        }
      ],
      "stateMutability": "view",
      "type": "function"
    },
    {
      "inputs": [
        {
          "internalType": "address",
          "name": "ticketCollection",
          "type": "address"
        }
      ],
      "name": "getEventDetails",
      "outputs": [
        {
          "components": [
            {
              "internalType": "string",
              "name": "eventName",
              "type": "string"
            },
            {
              "internalType": "uint256",
              "name": "price",
              "type": "uint256"
            },
            {
              "internalType": "uint256",
              "name": "maxNumberOfTickets",
              "type": "uint256"
            },
            {
              "internalType": "uint256",
              "name": "ticketsSold",
              "type": "uint256"
            }
          ],
          "internalType": "struct PrimaryMarket.EventDetails",
          "name": "",
          "type": "tuple"
        }
      ],
      "stateMutability": "view",
      "type": "function"
    },
    {
      "inputs": [
        {
          "internalType": "address",
          "name": "ticketCollection",
          "type": "address"
        }
      ],
      "name": "getEventName",
      "outputs": [
        {
          "internalType": "string",
          "name": "",
          "type": "string"
        }
      ],
      "stateMutability": "view",
      "type": "function"
    },
    {
      "inputs": [
        {
          "internalType": "address",
          "name": "ticketCollection",
          "type": "address"
        }
      ],
      "name": "getMaximumNumberOfTickets",
      "outputs": [
        {
          "internalType": "uint256",
          "name": "",
          "type": "uint256"
        }
      ],
      "stateMutability": "view",
      "type": "function"
    },
    {
      "inputs": [
        {
          "internalType": "address",
          "name": "ticketCollection",
          "type": "address"
        }
      ],
      "name": "getPrice",
      "outputs": [
        {
          "internalType": "uint256",
          "name": "price",
          "type": "uint256"
        }
      ],
      "stateMutability": "view",
      "type": "function"
    },
    {
      "inputs": [
        {
          "internalType": "address",
          "name": "ticketCollection",
          "type": "address"
        }
      ],
      "name": "getTicketsSold",
      "outputs": [
        {
          "internalType": "uint256",
          "name": "",
          "type": "uint256"
        }
      ],
      "stateMutability": "view",
      "type": "function"
    },
    {
      "inputs": [
        {
          "internalType": "address",
          "name": "ticketNFTAddress",
          "type": "address"
        },
        {
          "internalType": "address",
          "name": "holder",
          "type": "address"
        },
        {
          "internalType": "string",
          "name": "holderName",
          "type": "string"
        }
      ],
      "name": "mintTicket",
      "outputs": [],
      "stateMutability": "nonpayable",
      "type": "function"
    },
    {
      "inputs": [
        {
          "internalType": "address",
          "name": "",
          "type": "address"
        },
        {
          "internalType": "address",
          "name": "",
          "type": "address"
        },
        {
          "internalType": "uint256",
          "name": "",
          "type": "uint256"
        },
        {
          "internalType": "bytes",
          "name": "",
          "type": "bytes"
        }
      ],
      "name": "onERC721Received",
      "outputs": [
        {
          "internalType": "bytes4",
          "name": "",
          "type": "bytes4"
        }
      ],
      "stateMutability": "pure",
      "type": "function"
    },
    {
      "inputs": [],
      "name": "paymentToken",
      "outputs": [
        {
          "internalType": "contract IERC20",
          "name": "",
          "type": "address"
        }
      ],
      "stateMutability": "view",
      "type": "function"
    },
    {
      "inputs": [
        {
          "internalType": "address",
          "name": "ticketCollection",
          "type": "address"
        },
        {
          "internalType": "string",
          "name": "holderName",
          "type": "string"
        }
      ],
      "name": "purchase",
      "outputs": [
        {
          "internalType": "uint256",
          "name": "id",
          "type": "uint256"
        }
      ],
      "stateMutability": "nonpayable",
      "type": "function"
    }
  ],
  "bytecode": {
    "object": "0x608060405234801561001057600080fd5b5060405161222938038061222983398101604081905261002f91610054565b600080546001600160a01b0319166001600160a01b0392909216919091179055610084565b60006020828403121561006657600080fd5b81516001600160a01b038116811461007d57600080fd5b9392505050565b612196806100936000396000f3fe60806040523480156200001157600080fd5b5060043610620000c35760003560e01c8063567872df116200007a578063567872df14620001d0578063a5cd54d414620001f6578063bff570e4146200020d578063cdd6c994146200023c578063d43f036b146200026b578063d6e57f50146200029157600080fd5b8063150b7a0214620000c85780631dd53139146200010857806322f64a9c14620001215780633013ce2914620001665780633a1b1d57146200017a57806341976e0914620001a0575b600080fd5b620000ea620000d9366004620009d9565b630a85bd0160e11b95945050505050565b6040516001600160e01b031990911681526020015b60405180910390f35b6200011f6200011936600462000b28565b620002ba565b005b6200014d6200013236600462000b8e565b6002602052600090815260409020546001600160a01b031681565b6040516001600160a01b039091168152602001620000ff565b6000546200014d906001600160a01b031681565b620001916200018b36600462000bb3565b62000336565b604051908152602001620000ff565b62000191620001b136600462000b8e565b6001600160a01b03166000908152600160208190526040909120015490565b620001e7620001e136600462000b8e565b62000561565b604051620000ff919062000c57565b6200014d6200020736600462000c6c565b62000615565b620001916200021e36600462000b8e565b6001600160a01b031660009081526001602052604090206003015490565b620001916200024d36600462000b8e565b6001600160a01b031660009081526001602052604090206002015490565b620002826200027c36600462000b8e565b62000743565b604051620000ff919062000cbe565b620002a8620002a236600462000b8e565b62000850565b604051620000ff949392919062000d06565b60405163d0def52160e01b81526001600160a01b0384169063d0def52190620002ea908590859060040162000d37565b6020604051808303816000875af11580156200030a573d6000803e3d6000fd5b505050506040513d601f19601f8201168201806040525081019062000330919062000d65565b50505050565b6001600160a01b03821660009081526001602052604081206002810154600382015410620003a25760405162461bcd60e51b8152602060048201526014602482015273105b1b081d1a58dad95d1cc81cdbdb19081bdd5d60621b60448201526064015b60405180910390fd5b6001810154600080546001600160a01b03878116835260026020526040928390205492516323b872dd60e01b815233600482015292811660248401526044830184905216906323b872dd906064016020604051808303816000875af115801562000410573d6000803e3d6000fd5b505050506040513d601f19601f8201168201806040525081019062000436919062000d7f565b620004755760405162461bcd60e51b815260206004820152600e60248201526d14185e5b595b9d0819985a5b195960921b604482015260640162000399565b60405163d0def52160e01b815285906000906001600160a01b0383169063d0def52190620004aa9033908a9060040162000d37565b6020604051808303816000875af1158015620004ca573d6000803e3d6000fd5b505050506040513d601f19601f82011682018060405250810190620004f0919062000d65565b9050600184600301600082825462000509919062000da3565b90915550506040516001600160a01b0388169033907f919be812a285f2dcdadb642b6be908c8924fb8e7c1bb20ceb040ed312b03c813906200054f9085908b9062000dca565b60405180910390a39695505050505050565b6001600160a01b03811660009081526001602052604090208054606091906200058a9062000de5565b80601f0160208091040260200160405190810160405280929190818152602001828054620005b89062000de5565b8015620006095780601f10620005dd5761010080835404028352916020019162000609565b820191906000526020600020905b815481529060010190602001808311620005eb57829003601f168201915b50505050509050919050565b600080848333306040516200062a9062000908565b62000639949392919062000e22565b604051809103906000f08015801562000656573d6000803e3d6000fd5b506040805160808101825287815260208082018890528183018790526000606083018190526001600160a01b038516815260018252929092208151805194955091939092620006aa92849291019062000916565b5060208281015160018301556040808401516002808501919091556060909401516003909301929092556001600160a01b0384166000818152939091529181902080546001600160a01b0319163390811790915590517f2a02a92e56497cfd27dfc15a4d0093031ad5012ce1fd1ae5107bfbc594e4cff390620007339089908990899062000e5d565b60405180910390a3949350505050565b6200076f6040518060800160405280606081526020016000815260200160008152602001600081525090565b6001600160a01b03821660009081526001602052604090819020815160808101909252805482908290620007a39062000de5565b80601f0160208091040260200160405190810160405280929190818152602001828054620007d19062000de5565b8015620008225780601f10620007f65761010080835404028352916020019162000822565b820191906000526020600020905b8154815290600101906020018083116200080457829003601f168201915b5050505050815260200160018201548152602001600282015481526020016003820154815250509050919050565b6001602052600090815260409020805481906200086d9062000de5565b80601f01602080910402602001604051908101604052809291908181526020018280546200089b9062000de5565b8015620008ec5780601f10620008c057610100808354040283529160200191620008ec565b820191906000526020600020905b815481529060010190602001808311620008ce57829003601f168201915b5050505050908060010154908060020154908060030154905084565b6112dc8062000e8583390190565b828054620009249062000de5565b90600052602060002090601f01602090048101928262000948576000855562000993565b82601f106200096357805160ff191683800117855562000993565b8280016001018555821562000993579182015b828111156200099357825182559160200191906001019062000976565b50620009a1929150620009a5565b5090565b5b80821115620009a15760008155600101620009a6565b80356001600160a01b0381168114620009d457600080fd5b919050565b600080600080600060808688031215620009f257600080fd5b620009fd86620009bc565b945062000a0d60208701620009bc565b935060408601359250606086013567ffffffffffffffff8082111562000a3257600080fd5b818801915088601f83011262000a4757600080fd5b81358181111562000a5757600080fd5b89602082850101111562000a6a57600080fd5b9699959850939650602001949392505050565b634e487b7160e01b600052604160045260246000fd5b600082601f83011262000aa557600080fd5b813567ffffffffffffffff8082111562000ac35762000ac362000a7d565b604051601f8301601f19908116603f0116810190828211818310171562000aee5762000aee62000a7d565b8160405283815286602085880101111562000b0857600080fd5b836020870160208301376000602085830101528094505050505092915050565b60008060006060848603121562000b3e57600080fd5b62000b4984620009bc565b925062000b5960208501620009bc565b9150604084013567ffffffffffffffff81111562000b7657600080fd5b62000b848682870162000a93565b9150509250925092565b60006020828403121562000ba157600080fd5b62000bac82620009bc565b9392505050565b6000806040838503121562000bc757600080fd5b62000bd283620009bc565b9150602083013567ffffffffffffffff81111562000bef57600080fd5b62000bfd8582860162000a93565b9150509250929050565b6000815180845260005b8181101562000c2f5760208185018101518683018201520162000c11565b8181111562000c42576000602083870101525b50601f01601f19169290920160200192915050565b60208152600062000bac602083018462000c07565b60008060006060848603121562000c8257600080fd5b833567ffffffffffffffff81111562000c9a57600080fd5b62000ca88682870162000a93565b9660208601359650604090950135949350505050565b60208152600082516080602084015262000cdc60a084018262000c07565b90506020840151604084015260408401516060840152606084015160808401528091505092915050565b60808152600062000d1b608083018762000c07565b6020830195909552506040810192909252606090910152919050565b6001600160a01b038316815260406020820181905260009062000d5d9083018462000c07565b949350505050565b60006020828403121562000d7857600080fd5b5051919050565b60006020828403121562000d9257600080fd5b8151801515811462000bac57600080fd5b6000821982111562000dc557634e487b7160e01b600052601160045260246000fd5b500190565b82815260406020820152600062000d5d604083018462000c07565b600181811c9082168062000dfa57607f821691505b6020821081141562000e1c57634e487b7160e01b600052602260045260246000fd5b50919050565b60808152600062000e37608083018762000c07565b6020830195909552506001600160a01b0392831660408201529116606090910152919050565b60608152600062000e72606083018662000c07565b6020830194909452506040015291905056fe6080604052600080553480156200001557600080fd5b50604051620012dc380380620012dc833981016040819052620000389162000163565b600180546001600160a01b038085166001600160a01b031992831617909255600480549284169290911691909117905583516200007d9060029060208701906200008a565b50505060035550620002ae565b828054620000989062000271565b90600052602060002090601f016020900481019282620000bc576000855562000107565b82601f10620000d757805160ff191683800117855562000107565b8280016001018555821562000107579182015b8281111562000107578251825591602001919060010190620000ea565b506200011592915062000119565b5090565b5b808211156200011557600081556001016200011a565b634e487b7160e01b600052604160045260246000fd5b80516001600160a01b03811681146200015e57600080fd5b919050565b600080600080608085870312156200017a57600080fd5b84516001600160401b03808211156200019257600080fd5b818701915087601f830112620001a757600080fd5b815181811115620001bc57620001bc62000130565b604051601f8201601f19908116603f01168101908382118183101715620001e757620001e762000130565b81604052828152602093508a848487010111156200020457600080fd5b600091505b8282101562000228578482018401518183018501529083019062000209565b828211156200023a5760008484830101525b8098505050508087015194505050620002566040860162000146565b9150620002666060860162000146565b905092959194509250565b600181811c908216806200028657607f821691505b60208210811415620002a857634e487b7160e01b600052602260045260246000fd5b50919050565b61101e80620002be6000396000f3fe608060405234801561001057600080fd5b50600436106100ea5760003560e01c80637b615c4b1161008c578063d0def52111610066578063d0def521146101fc578063dbacc2371461020f578063f1d4514b14610222578063fdf8a44e1461023557600080fd5b80637b615c4b146101ce5780638043c9c0146101e15780638543016c146101e957600080fd5b80631ac0d8ac116100c85780631ac0d8ac1461014157806323b872dd14610164578063600580d51461017757806370a082311461019757600080fd5b806302d05d3f146100ef578063081812fc14610119578063095ea7b31461012c575b600080fd5b6001546001600160a01b03165b6040516001600160a01b0390911681526020015b60405180910390f35b6100fc610127366004610c7a565b61023d565b61013f61013a366004610caf565b61029d565b005b61015461014f366004610c7a565b610366565b6040519015158152602001610110565b61013f610172366004610cd9565b6103cd565b61018a610185366004610c7a565b610607565b6040516101109190610d15565b6101c06101a5366004610d6a565b6001600160a01b031660009081526006602052604090205490565b604051908152602001610110565b61013f6101dc366004610d85565b6106df565b61018a61076e565b61013f6101f7366004610c7a565b610800565b6101c061020a366004610e17565b61096c565b6100fc61021d366004610c7a565b610ac8565b61018a610230366004610c7a565b610b1b565b6003546101c0565b60008181526005602052604081205482906001600160a01b031661027c5760405162461bcd60e51b815260040161027390610ed9565b60405180910390fd5b6000838152600a60205260409020546001600160a01b031691505b50919050565b60008181526005602052604090205481906001600160a01b031633146102d55760405162461bcd60e51b815260040161027390610f10565b60008281526005602052604090205482906001600160a01b031661030b5760405162461bcd60e51b815260040161027390610ed9565b6000838152600a602052604080822080546001600160a01b0319166001600160a01b0388169081179091559051859233917f8c5be1e5ebec7d5bd14f71427d1e84f3dd0314c0f7b2291e5b200ac8c7c3b9259190a450505050565b60008181526005602052604081205482906001600160a01b031661039c5760405162461bcd60e51b815260040161027390610ed9565b60008381526009602052604090205460ff16806103c6575060008381526008602052604090205442115b9392505050565b60008181526005602052604090205481906001600160a01b03166104035760405162461bcd60e51b815260040161027390610ed9565b6001600160a01b0384161580159061042357506001600160a01b03831615155b61046f5760405162461bcd60e51b815260206004820152601a60248201527f496e76616c69642066726f6d206f7220746f20616464726573730000000000006044820152606401610273565b6000828152600560205260409020546001600160a01b03163314806104aa57506000828152600a60205260409020546001600160a01b031633145b6105015760405162461bcd60e51b815260206004820152602260248201527f5472616e73666572206f66207469636b65742074686174206973206e6f74206f6044820152613bb760f11b6064820152608401610273565b6001600160a01b038416600090815260066020526040812080549161052583610f69565b90915550506001600160a01b038316600090815260066020526040812080549161054e83610f80565b9091555050600082815260056020908152604080832080546001600160a01b038089166001600160a01b03199283168117909355600a909452828520805490911690559051859391928816917fddf252ad1be2c89b69c2b068fc378daa952ba7f163c4a11628f55a4df523b3ef91a46000828152600560205260408082205490518492916001600160a01b0316907f8c5be1e5ebec7d5bd14f71427d1e84f3dd0314c0f7b2291e5b200ac8c7c3b925908390a450505050565b60008181526005602052604090205460609082906001600160a01b03166106405760405162461bcd60e51b815260040161027390610ed9565b6000838152600760205260409020805461065990610f9b565b80601f016020809104026020016040519081016040528092919081815260200182805461068590610f9b565b80156106d25780601f106106a7576101008083540402835291602001916106d2565b820191906000526020600020905b8154815290600101906020018083116106b557829003601f168201915b5050505050915050919050565b60008381526005602052604090205483906001600160a01b031633146107175760405162461bcd60e51b815260040161027390610f10565b60008481526005602052604090205484906001600160a01b031661074d5760405162461bcd60e51b815260040161027390610ed9565b6000858152600760205260409020610766908585610b6d565b505050505050565b60606002805461077d90610f9b565b80601f01602080910402602001604051908101604052809291908181526020018280546107a990610f9b565b80156107f65780601f106107cb576101008083540402835291602001916107f6565b820191906000526020600020905b8154815290600101906020018083116107d957829003601f168201915b5050505050905090565b6001546001600160a01b031633148061082357506004546001600160a01b031633145b61086f5760405162461bcd60e51b815260206004820152601e60248201527f5468652063616c6c6572206973206e6f74207468652063726561746f722100006044820152606401610273565b60008181526005602052604090205481906001600160a01b03166108a55760405162461bcd60e51b815260040161027390610ed9565b60008281526009602052604090205460ff16156108fd5760405162461bcd60e51b8152602060048201526016602482015275151a58dad95d081a5cc8185b1c9958591e481d5cd95960521b6044820152606401610273565b6000828152600860205260409020544211156109505760405162461bcd60e51b8152602060048201526012602482015271151a58dad95d081a185cc8195e1c1a5c995960721b6044820152606401610273565b506000908152600960205260409020805460ff19166001179055565b6001546000906001600160a01b031633148061099257506004546001600160a01b031633145b6109de5760405162461bcd60e51b815260206004820152601e60248201527f5468652063616c6c6572206973206e6f74207468652063726561746f722100006044820152606401610273565b6000805490806109ed83610f80565b90915550506000805480825260056020908152604080842080546001600160a01b0319166001600160a01b03891690811790915584526006909152822080549192610a3783610f80565b909155505060008181526007602090815260409091208451610a5b92860190610bf1565b50610a6942620d2f00610fd0565b60008281526008602090815260408083209390935560099052818120805460ff19169055905182916001600160a01b038716917fddf252ad1be2c89b69c2b068fc378daa952ba7f163c4a11628f55a4df523b3ef908290a49392505050565b60008181526005602052604081205482906001600160a01b0316610afe5760405162461bcd60e51b815260040161027390610ed9565b50506000908152600560205260409020546001600160a01b031690565b60008181526005602052604090205460609082906001600160a01b0316610b545760405162461bcd60e51b815260040161027390610ed9565b6000838152600b60205260409020805461065990610f9b565b828054610b7990610f9b565b90600052602060002090601f016020900481019282610b9b5760008555610be1565b82601f10610bb45782800160ff19823516178555610be1565b82800160010185558215610be1579182015b82811115610be1578235825591602001919060010190610bc6565b50610bed929150610c65565b5090565b828054610bfd90610f9b565b90600052602060002090601f016020900481019282610c1f5760008555610be1565b82601f10610c3857805160ff1916838001178555610be1565b82800160010185558215610be1579182015b82811115610be1578251825591602001919060010190610c4a565b5b80821115610bed5760008155600101610c66565b600060208284031215610c8c57600080fd5b5035919050565b80356001600160a01b0381168114610caa57600080fd5b919050565b60008060408385031215610cc257600080fd5b610ccb83610c93565b946020939093013593505050565b600080600060608486031215610cee57600080fd5b610cf784610c93565b9250610d0560208501610c93565b9150604084013590509250925092565b600060208083528351808285015260005b81811015610d4257858101830151858201604001528201610d26565b81811115610d54576000604083870101525b50601f01601f1916929092016040019392505050565b600060208284031215610d7c57600080fd5b6103c682610c93565b600080600060408486031215610d9a57600080fd5b83359250602084013567ffffffffffffffff80821115610db957600080fd5b818601915086601f830112610dcd57600080fd5b813581811115610ddc57600080fd5b876020828501011115610dee57600080fd5b6020830194508093505050509250925092565b634e487b7160e01b600052604160045260246000fd5b60008060408385031215610e2a57600080fd5b610e3383610c93565b9150602083013567ffffffffffffffff80821115610e5057600080fd5b818501915085601f830112610e6457600080fd5b813581811115610e7657610e76610e01565b604051601f8201601f19908116603f01168101908382118183101715610e9e57610e9e610e01565b81604052828152886020848701011115610eb757600080fd5b8260208601602083013760006020848301015280955050505050509250929050565b6020808252601a908201527f546865207469636b657420646f6573206e6f7420657869737421000000000000604082015260600190565b60208082526023908201527f5468652063616c6c6572206973206e6f7420746865207469636b6574206f776e60408201526265722160e81b606082015260800190565b634e487b7160e01b600052601160045260246000fd5b600081610f7857610f78610f53565b506000190190565b6000600019821415610f9457610f94610f53565b5060010190565b600181811c90821680610faf57607f821691505b6020821081141561029757634e487b7160e01b600052602260045260246000fd5b60008219821115610fe357610fe3610f53565b50019056fea2646970667358221220e2559c1b3b610588bb33a5178aa0897fe1980d0bb5dd11371ef1bdabca75452b64736f6c634300080a0033a2646970667358221220472a31ef01e37e053b0b606c4e2652410da35538ba369ae6cea7810e3c9a808164736f6c634300080a0033",
    "linkReferences": {}
  },
  "methodIdentifiers": {
    "createNewEvent(string,uint256,uint256)": "a5cd54d4",
    "eventCreators(address)": "22f64a9c",
    "eventDetails(address)": "d6e57f50",
    "getEventDetails(address)": "d43f036b",
    "getEventName(address)": "567872df",
    "getMaximumNumberOfTickets(address)": "cdd6c994",
    "getPrice(address)": "41976e09",
    "getTicketsSold(address)": "bff570e4",
    "mintTicket(address,address,string)": "1dd53139",
    "onERC721Received(address,address,uint256,bytes)": "150b7a02",
    "paymentToken()": "3013ce29",
    "purchase(address,string)": "3a1b1d57"
  },
  "id": 15
}