{
  "abi": [
    {
      "inputs": [
        {
          "internalType": "contract PurchaseToken",
          "name": "_purchaseToken",
          "type": "address"
        }
      ],
      "stateMutability": "nonpayable",
      "type": "constructor"
    },
    {
      "anonymous": false,
      "inputs": [
        {
          "indexed": true,
          "internalType": "address",
          "name": "bidder",
          "type": "address"
        },
        {
          "indexed": true,
          "internalType": "address",
          "name": "ticketCollection",
          "type": "address"
        },
        {
          "indexed": true,
          "internalType": "uint256",
          "name": "ticketID",
          "type": "uint256"
        },
        {
          "indexed": false,
          "internalType": "uint256",
          "name": "bidAmount",
          "type": "uint256"
        },
        {
          "indexed": false,
          "internalType": "string",
          "name": "newName",
          "type": "string"
        }
      ],
      "name": "BidAccepted",
      "type": "event"
    },
    {
      "anonymous": false,
      "inputs": [
        {
          "indexed": true,
          "internalType": "address",
          "name": "bidder",
          "type": "address"
        },
        {
          "indexed": true,
          "internalType": "address",
          "name": "ticketCollection",
          "type": "address"
        },
        {
          "indexed": true,
          "internalType": "uint256",
          "name": "ticketID",
          "type": "uint256"
        },
        {
          "indexed": false,
          "internalType": "uint256",
          "name": "bidAmount",
          "type": "uint256"
        },
        {
          "indexed": false,
          "internalType": "string",
          "name": "newName",
          "type": "string"
        }
      ],
      "name": "BidSubmitted",
      "type": "event"
    },
    {
      "anonymous": false,
      "inputs": [
        {
          "indexed": true,
          "internalType": "address",
          "name": "ticketCollection",
          "type": "address"
        },
        {
          "indexed": true,
          "internalType": "uint256",
          "name": "ticketID",
          "type": "uint256"
        }
      ],
      "name": "Delisting",
      "type": "event"
    },
    {
      "anonymous": false,
      "inputs": [
        {
          "indexed": true,
          "internalType": "address",
          "name": "holder",
          "type": "address"
        },
        {
          "indexed": true,
          "internalType": "address",
          "name": "ticketCollection",
          "type": "address"
        },
        {
          "indexed": true,
          "internalType": "uint256",
          "name": "ticketID",
          "type": "uint256"
        },
        {
          "indexed": false,
          "internalType": "uint256",
          "name": "price",
          "type": "uint256"
        }
      ],
      "name": "Listing",
      "type": "event"
    },
    {
      "inputs": [
        {
          "internalType": "address",
          "name": "",
          "type": "address"
        }
      ],
      "name": "TicketList",
      "outputs": [
        {
          "internalType": "address",
          "name": "seller",
          "type": "address"
        },
        {
          "internalType": "uint256",
          "name": "price",
          "type": "uint256"
        },
        {
          "internalType": "bool",
          "name": "isListed",
          "type": "bool"
        }
      ],
      "stateMutability": "view",
      "type": "function"
    },
    {
      "inputs": [
        {
          "internalType": "address",
          "name": "ticketCollection",
          "type": "address"
        },
        {
          "internalType": "uint256",
          "name": "ticketID",
          "type": "uint256"
        }
      ],
      "name": "acceptBid",
      "outputs": [],
      "stateMutability": "nonpayable",
      "type": "function"
    },
    {
      "inputs": [
        {
          "internalType": "address",
          "name": "ticketCollection",
          "type": "address"
        },
        {
          "internalType": "uint256",
          "name": "ticketID",
          "type": "uint256"
        }
      ],
      "name": "delistTicket",
      "outputs": [],
      "stateMutability": "nonpayable",
      "type": "function"
    },
    {
      "inputs": [
        {
          "internalType": "address",
          "name": "ticketCollection",
          "type": "address"
        },
        {
          "internalType": "uint256",
          "name": "ticketID",
          "type": "uint256"
        }
      ],
      "name": "getHighestBid",
      "outputs": [
        {
          "internalType": "uint256",
          "name": "",
          "type": "uint256"
        }
      ],
      "stateMutability": "view",
      "type": "function"
    },
    {
      "inputs": [
        {
          "internalType": "address",
          "name": "ticketCollection",
          "type": "address"
        },
        {
          "internalType": "uint256",
          "name": "ticketID",
          "type": "uint256"
        }
      ],
      "name": "getHighestBidder",
      "outputs": [
        {
          "internalType": "address",
          "name": "",
          "type": "address"
        }
      ],
      "stateMutability": "view",
      "type": "function"
    },
    {
      "inputs": [
        {
          "internalType": "address",
          "name": "ticketCollection",
          "type": "address"
        }
      ],
      "name": "getListing",
      "outputs": [
        {
          "components": [
            {
              "internalType": "address",
              "name": "seller",
              "type": "address"
            },
            {
              "internalType": "uint256",
              "name": "price",
              "type": "uint256"
            },
            {
              "internalType": "bool",
              "name": "isListed",
              "type": "bool"
            }
          ],
          "internalType": "struct SecondaryMarket.ListingOfTickets",
          "name": "",
          "type": "tuple"
        }
      ],
      "stateMutability": "view",
      "type": "function"
    },
    {
      "inputs": [
        {
          "internalType": "address",
          "name": "ticketCollection",
          "type": "address"
        },
        {
          "internalType": "uint256",
          "name": "ticketID",
          "type": "uint256"
        },
        {
          "internalType": "uint256",
          "name": "price",
          "type": "uint256"
        }
      ],
      "name": "listTicket",
      "outputs": [],
      "stateMutability": "nonpayable",
      "type": "function"
    },
    {
      "inputs": [],
      "name": "purchaseToken",
      "outputs": [
        {
          "internalType": "contract IERC20",
          "name": "",
          "type": "address"
        }
      ],
      "stateMutability": "view",
      "type": "function"
    },
    {
      "inputs": [
        {
          "internalType": "address",
          "name": "ticketCollection",
          "type": "address"
        },
        {
          "internalType": "uint256",
          "name": "ticketID",
          "type": "uint256"
        },
        {
          "internalType": "uint256",
          "name": "bidAmount",
          "type": "uint256"
        },
        {
          "internalType": "string",
          "name": "name",
          "type": "string"
        }
      ],
      "name": "submitBid",
      "outputs": [],
      "stateMutability": "nonpayable",
      "type": "function"
    }
  ],
  "bytecode": {
    "object": "0x608060405234801561001057600080fd5b5060405161148438038061148483398101604081905261002f91610054565b600080546001600160a01b0319166001600160a01b0392909216919091179055610084565b60006020828403121561006657600080fd5b81516001600160a01b038116811461007d57600080fd5b9392505050565b6113f1806100936000396000f3fe608060405234801561001057600080fd5b50600436106100935760003560e01c8063868138dc11610066578063868138dc146101a4578063955a5a7614610208578063a670a9b41461021b578063a95c4d6214610269578063f489b89a1461027c57600080fd5b8063084af0b2146100985780631d66b15c14610135578063793bba6c1461014a5780638226508d1461015d575b600080fd5b6101036100a6366004611101565b6040805160608082018352600080835260208084018290529284018190526001600160a01b039485168152600280845290849020845192830185528054909516825260018501549282019290925292015460ff1615159082015290565b6040805182516001600160a01b0316815260208084015190820152918101511515908201526060015b60405180910390f35b610148610143366004611125565b61028f565b005b61014861015836600461115a565b610601565b61019661016b3660046111f0565b6001600160a01b03919091166000908152600160208181526040808420948452939052919020015490565b60405190815260200161012c565b6101e16101b2366004611101565b60026020819052600091825260409091208054600182015491909201546001600160a01b039092169160ff1683565b604080516001600160a01b039094168452602084019290925215159082015260600161012c565b6101486102163660046111f0565b610a67565b6102516102293660046111f0565b6001600160a01b03918216600090815260016020908152604080832093835292905220541690565b6040516001600160a01b03909116815260200161012c565b600054610251906001600160a01b031681565b61014861028a3660046111f0565b610f08565b60405163dbacc23760e01b81526004810183905233906001600160a01b0385169063dbacc23790602401602060405180830381865afa1580156102d6573d6000803e3d6000fd5b505050506040513d601f19601f820116820180604052508101906102fa919061121c565b6001600160a01b0316146103555760405162461bcd60e51b815260206004820152601a60248201527f4f6e6c79207469636b6574206f776e65722063616e206c69737400000000000060448201526064015b60405180910390fd5b6040516306b0362b60e21b8152600481018390526001600160a01b03841690631ac0d8ac90602401602060405180830381865afa15801561039a573d6000803e3d6000fd5b505050506040513d601f19601f820116820180604052508101906103be9190611239565b15156001141561041b5760405162461bcd60e51b815260206004820152602260248201527f43616e6e6f74206c6973742065787069726564206f722075736564207469636b604482015261195d60f21b606482015260840161034c565b6040516323b872dd60e01b81526001600160a01b038416906323b872dd9061044b9033903090879060040161125b565b600060405180830381600087803b15801561046557600080fd5b505af1158015610479573d6000803e3d6000fd5b505060405163095ea7b360e01b8152306004820152602481018590526001600160a01b038616925063095ea7b39150604401600060405180830381600087803b1580156104c557600080fd5b505af11580156104d9573d6000803e3d6000fd5b50506040805160608101825260008082526020808301878152845180830186528381528486019081526001600160a01b038b8116855260018085528786208c8752855296909420855181546001600160a01b03191695169490941784559051948301949094559251805192955090935061055a926002850192910190611016565b50506040805160608101825233808252602080830186815260018486018181526001600160a01b038b811660008181526002808852908a9020985189546001600160a01b0319169316929092178855935192870192909255519401805460ff1916941515949094179093559251858152869450919290917f84d2359781d0cae07f76a233e689a83b58360925f9177ebc367b5233511aab93910160405180910390a4505050565b6001600160a01b038516600090815260026020908152604080832060018084528285208986529093529220015484116106995760405162461bcd60e51b815260206004820152603460248201527f54686520626964206d75737420626520686967686572207468616e207468652060448201527363757272656e742068696768657374206269642160601b606482015260840161034c565b600281015460ff166106ed5760405162461bcd60e51b815260206004820152601960248201527f546865207469636b6574206973206e6f74206c69737465642e00000000000000604482015260640161034c565b6001600160a01b0380871660009081526001602081815260408084208a855282528084208151606081018352815490961686529283015491850191909152600282018054939493918401916107419061127f565b80601f016020809104026020016040519081016040528092919081815260200182805461076d9061127f565b80156107ba5780601f1061078f576101008083540402835291602001916107ba565b820191906000526020600020905b81548152906001019060200180831161079d57829003601f168201915b5050505050815250509050600081602001511180156107e2575080516001600160a01b031615155b15610867576000548151602083015160405163a9059cbb60e01b81526001600160a01b039283166004820152602481019190915291169063a9059cbb906044016020604051808303816000875af1158015610841573d6000803e3d6000fd5b505050506040513d601f19601f820116820180604052508101906108659190611239565b505b6000546040516323b872dd60e01b81526001600160a01b03909116906323b872dd9061089b90339030908a9060040161125b565b6020604051808303816000875af11580156108ba573d6000803e3d6000fd5b505050506040513d601f19601f820116820180604052508101906108de9190611239565b5060005460405163095ea7b360e01b8152306004820152602481018790526001600160a01b039091169063095ea7b3906044016020604051808303816000875af1158015610930573d6000803e3d6000fd5b505050506040513d601f19601f820116820180604052508101906109549190611239565b506040518060600160405280336001600160a01b0316815260200186815260200185858080601f01602080910402602001604051908101604052809392919081815260200183838082843760009201829052509390945250506001600160a01b038a811682526001602081815260408085208d8652825293849020865181546001600160a01b03191694169390931783558581015191830191909155918401518051919350610a0a926002850192910190611016565b5090505085876001600160a01b0316336001600160a01b03167f85f2e66743c0791ddd157dc7ab9a9649a6839e2d79276c17187da6c0a3a860cd888888604051610a56939291906112ba565b60405180910390a450505050505050565b6001600160a01b03808316600090815260026020818152604092839020835160608101855281549095168086526001820154928601929092529091015460ff161515918301919091523314610b095760405162461bcd60e51b815260206004820152602260248201527f4f6e6c79207468652073656c6c65722063616e206163636570742074686520626044820152611a5960f21b606482015260840161034c565b6001600160a01b0380841660009081526001602081815260408084208785528252808420815160608101835281549096168652928301549185019190915260028201805493949391840191610b5d9061127f565b80601f0160208091040260200160405190810160405280929190818152602001828054610b899061127f565b8015610bd65780601f10610bab57610100808354040283529160200191610bd6565b820191906000526020600020905b815481529060010190602001808311610bb957829003601f168201915b50505050508152505090506000606482602001516005610bf69190611306565b610c009190611325565b905060008054906101000a90046001600160a01b03166001600160a01b031663a9059cbb866001600160a01b03166302d05d3f6040518163ffffffff1660e01b8152600401602060405180830381865afa158015610c62573d6000803e3d6000fd5b505050506040513d601f19601f82011682018060405250810190610c86919061121c565b6040516001600160e01b031960e084901b1681526001600160a01b039091166004820152602481018490526044016020604051808303816000875af1158015610cd3573d6000803e3d6000fd5b505050506040513d601f19601f82011682018060405250810190610cf79190611239565b50600054835160208401516001600160a01b039092169163a9059cbb9190610d20908590611347565b6040516001600160e01b031960e085901b1681526001600160a01b03909216600483015260248201526044016020604051808303816000875af1158015610d6b573d6000803e3d6000fd5b505050506040513d601f19601f82011682018060405250810190610d8f9190611239565b506040808301519051637b615c4b60e01b81526001600160a01b03871691637b615c4b91610dc191889160040161135e565b600060405180830381600087803b158015610ddb57600080fd5b505af1158015610def573d6000803e3d6000fd5b505083516040516323b872dd60e01b81526001600160a01b03891693506323b872dd9250610e23913091899060040161125b565b600060405180830381600087803b158015610e3d57600080fd5b505af1158015610e51573d6000803e3d6000fd5b5050505083856001600160a01b031683600001516001600160a01b03167fe617cb81f1ecf15453e5ac151d07668051d9faa4f959e6d2dffa2f4327a155458560200151604051610eb291815260406020820181905260009082015260600190565b60405180910390a46001600160a01b0385166000908152600160208181526040808420888552909152822080546001600160a01b031916815590810182905590610eff600283018261109a565b50505050505050565b6001600160a01b03828116600090815260026020526040902080549091163314610f6d5760405162461bcd60e51b815260206004820152601660248201527513db9b1e481b1a5cdd195c8818d85b8819195b1a5cdd60521b604482015260640161034c565b6040516323b872dd60e01b81526001600160a01b038416906323b872dd90610f9d9030903390879060040161125b565b600060405180830381600087803b158015610fb757600080fd5b505af1158015610fcb573d6000803e3d6000fd5b50505060028201805460ff191690555060405182906001600160a01b038516907f9c74d776e5765f64303c82b9dceb594cdf4d4e054e6530a839715a276532e0ab90600090a3505050565b8280546110229061127f565b90600052602060002090601f016020900481019282611044576000855561108a565b82601f1061105d57805160ff191683800117855561108a565b8280016001018555821561108a579182015b8281111561108a57825182559160200191906001019061106f565b506110969291506110d7565b5090565b5080546110a69061127f565b6000825580601f106110b6575050565b601f0160209004906000526020600020908101906110d491906110d7565b50565b5b8082111561109657600081556001016110d8565b6001600160a01b03811681146110d457600080fd5b60006020828403121561111357600080fd5b813561111e816110ec565b9392505050565b60008060006060848603121561113a57600080fd5b8335611145816110ec565b95602085013595506040909401359392505050565b60008060008060006080868803121561117257600080fd5b853561117d816110ec565b94506020860135935060408601359250606086013567ffffffffffffffff808211156111a857600080fd5b818801915088601f8301126111bc57600080fd5b8135818111156111cb57600080fd5b8960208285010111156111dd57600080fd5b9699959850939650602001949392505050565b6000806040838503121561120357600080fd5b823561120e816110ec565b946020939093013593505050565b60006020828403121561122e57600080fd5b815161111e816110ec565b60006020828403121561124b57600080fd5b8151801515811461111e57600080fd5b6001600160a01b039384168152919092166020820152604081019190915260600190565b600181811c9082168061129357607f821691505b602082108114156112b457634e487b7160e01b600052602260045260246000fd5b50919050565b83815260406020820152816040820152818360608301376000818301606090810191909152601f909201601f1916010192915050565b634e487b7160e01b600052601160045260246000fd5b6000816000190483118215151615611320576113206112f0565b500290565b60008261134257634e487b7160e01b600052601260045260246000fd5b500490565b600082821015611359576113596112f0565b500390565b82815260006020604081840152835180604085015260005b8181101561139257858101830151858201606001528201611376565b818111156113a4576000606083870101525b50601f01601f19169290920160600194935050505056fea26469706673582212208b3f90280dd308c87d8d3531a976d588f8f8fbb371883ba1987569f67b7c11f864736f6c634300080a0033",
    "linkReferences": {}
  },
  "methodIdentifiers": {
    "TicketList(address)": "868138dc",
    "acceptBid(address,uint256)": "955a5a76",
    "delistTicket(address,uint256)": "f489b89a",
    "getHighestBid(address,uint256)": "8226508d",
    "getHighestBidder(address,uint256)": "a670a9b4",
    "getListing(address)": "084af0b2",
    "listTicket(address,uint256,uint256)": "1d66b15c",
    "purchaseToken()": "a95c4d62",
    "submitBid(address,uint256,uint256,string)": "793bba6c"
  },
  "id": 17
}