{
  "abi": [
    {
      "inputs": [],
      "stateMutability": "nonpayable",
      "type": "constructor"
    },
    {
      "anonymous": false,
      "inputs": [
        {
          "indexed": true,
          "internalType": "address",
          "name": "owner",
          "type": "address"
        },
        {
          "indexed": true,
          "internalType": "address",
          "name": "spender",
          "type": "address"
        },
        {
          "indexed": false,
          "internalType": "uint256",
          "name": "value",
          "type": "uint256"
        }
      ],
      "name": "Approval",
      "type": "event"
    },
    {
      "anonymous": false,
      "inputs": [
        {
          "indexed": true,
          "internalType": "address",
          "name": "from",
          "type": "address"
        },
        {
          "indexed": true,
          "internalType": "address",
          "name": "to",
          "type": "address"
        },
        {
          "indexed": false,
          "internalType": "uint256",
          "name": "value",
          "type": "uint256"
        }
      ],
      "name": "Transfer",
      "type": "event"
    },
    {
      "inputs": [
        {
          "internalType": "address",
          "name": "owner",
          "type": "address"
        },
        {
          "internalType": "address",
          "name": "spender",
          "type": "address"
        }
      ],
      "name": "allowance",
      "outputs": [
        {
          "internalType": "uint256",
          "name": "",
          "type": "uint256"
        }
      ],
      "stateMutability": "view",
      "type": "function"
    },
    {
      "inputs": [
        {
          "internalType": "address",
          "name": "spender",
          "type": "address"
        },
        {
          "internalType": "uint256",
          "name": "amount",
          "type": "uint256"
        }
      ],
      "name": "approve",
      "outputs": [
        {
          "internalType": "bool",
          "name": "",
          "type": "bool"
        }
      ],
      "stateMutability": "nonpayable",
      "type": "function"
    },
    {
      "inputs": [
        {
          "internalType": "address",
          "name": "account",
          "type": "address"
        }
      ],
      "name": "balanceOf",
      "outputs": [
        {
          "internalType": "uint256",
          "name": "",
          "type": "uint256"
        }
      ],
      "stateMutability": "view",
      "type": "function"
    },
    {
      "inputs": [],
      "name": "decimals",
      "outputs": [
        {
          "internalType": "uint8",
          "name": "",
          "type": "uint8"
        }
      ],
      "stateMutability": "view",
      "type": "function"
    },
    {
      "inputs": [
        {
          "internalType": "address",
          "name": "spender",
          "type": "address"
        },
        {
          "internalType": "uint256",
          "name": "subtractedValue",
          "type": "uint256"
        }
      ],
      "name": "decreaseAllowance",
      "outputs": [
        {
          "internalType": "bool",
          "name": "",
          "type": "bool"
        }
      ],
      "stateMutability": "nonpayable",
      "type": "function"
    },
    {
      "inputs": [
        {
          "internalType": "address",
          "name": "spender",
          "type": "address"
        },
        {
          "internalType": "uint256",
          "name": "addedValue",
          "type": "uint256"
        }
      ],
      "name": "increaseAllowance",
      "outputs": [
        {
          "internalType": "bool",
          "name": "",
          "type": "bool"
        }
      ],
      "stateMutability": "nonpayable",
      "type": "function"
    },
    {
      "inputs": [],
      "name": "mint",
      "outputs": [],
      "stateMutability": "payable",
      "type": "function"
    },
    {
      "inputs": [],
      "name": "name",
      "outputs": [
        {
          "internalType": "string",
          "name": "",
          "type": "string"
        }
      ],
      "stateMutability": "view",
      "type": "function"
    },
    {
      "inputs": [],
      "name": "symbol",
      "outputs": [
        {
          "internalType": "string",
          "name": "",
          "type": "string"
        }
      ],
      "stateMutability": "view",
      "type": "function"
    },
    {
      "inputs": [],
      "name": "totalSupply",
      "outputs": [
        {
          "internalType": "uint256",
          "name": "",
          "type": "uint256"
        }
      ],
      "stateMutability": "view",
      "type": "function"
    },
    {
      "inputs": [
        {
          "internalType": "address",
          "name": "to",
          "type": "address"
        },
        {
          "internalType": "uint256",
          "name": "amount",
          "type": "uint256"
        }
      ],
      "name": "transfer",
      "outputs": [
        {
          "internalType": "bool",
          "name": "",
          "type": "bool"
        }
      ],
      "stateMutability": "nonpayable",
      "type": "function"
    },
    {
      "inputs": [
        {
          "internalType": "address",
          "name": "from",
          "type": "address"
        },
        {
          "internalType": "address",
          "name": "to",
          "type": "address"
        },
        {
          "internalType": "uint256",
          "name": "amount",
          "type": "uint256"
        }
      ],
      "name": "transferFrom",
      "outputs": [
        {
          "internalType": "bool",
          "name": "",
          "type": "bool"
        }
      ],
      "stateMutability": "nonpayable",
      "type": "function"
    }
  ],
  "bytecode": {
    "object": "0x608060405234801561001057600080fd5b5060408051808201909152600d8082526c283ab931b430b9b2aa37b5b2b760991b602090920191825261004591600391610075565b5060408051808201909152600280825261141560f21b602090920191825261006f91600491610075565b50610149565b8280546100819061010e565b90600052602060002090601f0160209004810192826100a357600085556100e9565b82601f106100bc57805160ff19168380011785556100e9565b828001600101855582156100e9579182015b828111156100e95782518255916020019190600101906100ce565b506100f59291506100f9565b5090565b5b808211156100f557600081556001016100fa565b600181811c9082168061012257607f821691505b6020821081141561014357634e487b7160e01b600052602260045260246000fd5b50919050565b6109f6806101586000396000f3fe6080604052600436106100a75760003560e01c80633950935111610064578063395093511461016c57806370a082311461018c57806395d89b41146101c2578063a457c2d7146101d7578063a9059cbb146101f7578063dd62ed3e1461021757600080fd5b806306fdde03146100ac578063095ea7b3146100d75780631249c58b1461010757806318160ddd1461011157806323b872dd14610130578063313ce56714610150575b600080fd5b3480156100b857600080fd5b506100c1610237565b6040516100ce919061080c565b60405180910390f35b3480156100e357600080fd5b506100f76100f236600461087d565b6102c9565b60405190151581526020016100ce565b61010f6102e1565b005b34801561011d57600080fd5b506002545b6040519081526020016100ce565b34801561013c57600080fd5b506100f761014b3660046108a7565b6102fd565b34801561015c57600080fd5b50604051601281526020016100ce565b34801561017857600080fd5b506100f761018736600461087d565b610321565b34801561019857600080fd5b506101226101a73660046108e3565b6001600160a01b031660009081526020819052604090205490565b3480156101ce57600080fd5b506100c1610343565b3480156101e357600080fd5b506100f76101f236600461087d565b610352565b34801561020357600080fd5b506100f761021236600461087d565b6103d2565b34801561022357600080fd5b50610122610232366004610905565b6103e0565b60606003805461024690610938565b80601f016020809104026020016040519081016040528092919081815260200182805461027290610938565b80156102bf5780601f10610294576101008083540402835291602001916102bf565b820191906000526020600020905b8154815290600101906020018083116102a257829003601f168201915b5050505050905090565b6000336102d781858561040b565b5060019392505050565b60006102ee346064610989565b90506102fa338261052f565b50565b60003361030b8582856105ee565b610316858585610668565b506001949350505050565b6000336102d781858561033483836103e0565b61033e91906109a8565b61040b565b60606004805461024690610938565b6000338161036082866103e0565b9050838110156103c55760405162461bcd60e51b815260206004820152602560248201527f45524332303a2064656372656173656420616c6c6f77616e63652062656c6f77604482015264207a65726f60d81b60648201526084015b60405180910390fd5b610316828686840361040b565b6000336102d7818585610668565b6001600160a01b03918216600090815260016020908152604080832093909416825291909152205490565b6001600160a01b03831661046d5760405162461bcd60e51b8152602060048201526024808201527f45524332303a20617070726f76652066726f6d20746865207a65726f206164646044820152637265737360e01b60648201526084016103bc565b6001600160a01b0382166104ce5760405162461bcd60e51b815260206004820152602260248201527f45524332303a20617070726f766520746f20746865207a65726f206164647265604482015261737360f01b60648201526084016103bc565b6001600160a01b0383811660008181526001602090815260408083209487168084529482529182902085905590518481527f8c5be1e5ebec7d5bd14f71427d1e84f3dd0314c0f7b2291e5b200ac8c7c3b925910160405180910390a3505050565b6001600160a01b0382166105855760405162461bcd60e51b815260206004820152601f60248201527f45524332303a206d696e7420746f20746865207a65726f20616464726573730060448201526064016103bc565b806002600082825461059791906109a8565b90915550506001600160a01b038216600081815260208181526040808320805486019055518481527fddf252ad1be2c89b69c2b068fc378daa952ba7f163c4a11628f55a4df523b3ef910160405180910390a35050565b60006105fa84846103e0565b9050600019811461066257818110156106555760405162461bcd60e51b815260206004820152601d60248201527f45524332303a20696e73756666696369656e7420616c6c6f77616e636500000060448201526064016103bc565b610662848484840361040b565b50505050565b6001600160a01b0383166106cc5760405162461bcd60e51b815260206004820152602560248201527f45524332303a207472616e736665722066726f6d20746865207a65726f206164604482015264647265737360d81b60648201526084016103bc565b6001600160a01b03821661072e5760405162461bcd60e51b815260206004820152602360248201527f45524332303a207472616e7366657220746f20746865207a65726f206164647260448201526265737360e81b60648201526084016103bc565b6001600160a01b038316600090815260208190526040902054818110156107a65760405162461bcd60e51b815260206004820152602660248201527f45524332303a207472616e7366657220616d6f756e7420657863656564732062604482015265616c616e636560d01b60648201526084016103bc565b6001600160a01b03848116600081815260208181526040808320878703905593871680835291849020805487019055925185815290927fddf252ad1be2c89b69c2b068fc378daa952ba7f163c4a11628f55a4df523b3ef910160405180910390a3610662565b600060208083528351808285015260005b818110156108395785810183015185820160400152820161081d565b8181111561084b576000604083870101525b50601f01601f1916929092016040019392505050565b80356001600160a01b038116811461087857600080fd5b919050565b6000806040838503121561089057600080fd5b61089983610861565b946020939093013593505050565b6000806000606084860312156108bc57600080fd5b6108c584610861565b92506108d360208501610861565b9150604084013590509250925092565b6000602082840312156108f557600080fd5b6108fe82610861565b9392505050565b6000806040838503121561091857600080fd5b61092183610861565b915061092f60208401610861565b90509250929050565b600181811c9082168061094c57607f821691505b6020821081141561096d57634e487b7160e01b600052602260045260246000fd5b50919050565b634e487b7160e01b600052601160045260246000fd5b60008160001904831182151516156109a3576109a3610973565b500290565b600082198211156109bb576109bb610973565b50019056fea26469706673582212204e9821640df088363cc6bbeec16c4d7417fa39d174b93cdf91d4af31d2e6de0264736f6c634300080a0033",
    "linkReferences": {}
  },
  "methodIdentifiers": {
    "allowance(address,address)": "dd62ed3e",
    "approve(address,uint256)": "095ea7b3",
    "balanceOf(address)": "70a08231",
    "decimals()": "313ce567",
    "decreaseAllowance(address,uint256)": "a457c2d7",
    "increaseAllowance(address,uint256)": "39509351",
    "mint()": "1249c58b",
    "name()": "06fdde03",
    "symbol()": "95d89b41",
    "totalSupply()": "18160ddd",
    "transfer(address,uint256)": "a9059cbb",
    "transferFrom(address,address,uint256)": "23b872dd"
  },
  "id": 16
}