{
  "abi": [
    {
      "inputs": [
        {
          "internalType": "contract IERC20",
          "name": "_purchaseToken",
          "type": "address"
        }
      ],
      "stateMutability": "nonpayable",
      "type": "constructor"
    },
    {
      "anonymous": false,
      "inputs": [
        {
          "indexed": true,
          "internalType": "address",
          "name": "bidder",
          "type": "address"
        },
        {
          "indexed": true,
          "internalType": "address",
          "name": "ticketCollection",
          "type": "address"
        },
        {
          "indexed": true,
          "internalType": "uint256",
          "name": "ticketID",
          "type": "uint256"
        },
        {
          "indexed": false,
          "internalType": "uint256",
          "name": "bidAmount",
          "type": "uint256"
        },
        {
          "indexed": false,
          "internalType": "string",
          "name": "newName",
          "type": "string"
        }
      ],
      "name": "BidAccepted",
      "type": "event"
    },
    {
      "anonymous": false,
      "inputs": [
        {
          "indexed": true,
          "internalType": "address",
          "name": "bidder",
          "type": "address"
        },
        {
          "indexed": true,
          "internalType": "address",
          "name": "ticketCollection",
          "type": "address"
        },
        {
          "indexed": true,
          "internalType": "uint256",
          "name": "ticketID",
          "type": "uint256"
        },
        {
          "indexed": false,
          "internalType": "uint256",
          "name": "bidAmount",
          "type": "uint256"
        },
        {
          "indexed": false,
          "internalType": "string",
          "name": "newName",
          "type": "string"
        }
      ],
      "name": "BidSubmitted",
      "type": "event"
    },
    {
      "anonymous": false,
      "inputs": [
        {
          "indexed": true,
          "internalType": "address",
          "name": "ticketCollection",
          "type": "address"
        },
        {
          "indexed": true,
          "internalType": "uint256",
          "name": "ticketID",
          "type": "uint256"
        }
      ],
      "name": "Delisting",
      "type": "event"
    },
    {
      "anonymous": false,
      "inputs": [
        {
          "indexed": true,
          "internalType": "address",
          "name": "holder",
          "type": "address"
        },
        {
          "indexed": true,
          "internalType": "address",
          "name": "ticketCollection",
          "type": "address"
        },
        {
          "indexed": true,
          "internalType": "uint256",
          "name": "ticketID",
          "type": "uint256"
        },
        {
          "indexed": false,
          "internalType": "uint256",
          "name": "price",
          "type": "uint256"
        }
      ],
      "name": "Listing",
      "type": "event"
    },
    {
      "inputs": [
        {
          "internalType": "address",
          "name": "",
          "type": "address"
        }
      ],
      "name": "List",
      "outputs": [
        {
          "internalType": "address",
          "name": "seller",
          "type": "address"
        },
        {
          "internalType": "uint256",
          "name": "price",
          "type": "uint256"
        },
        {
          "internalType": "bool",
          "name": "isListed",
          "type": "bool"
        }
      ],
      "stateMutability": "view",
      "type": "function"
    },
    {
      "inputs": [
        {
          "internalType": "address",
          "name": "ticketCollection",
          "type": "address"
        },
        {
          "internalType": "uint256",
          "name": "ticketID",
          "type": "uint256"
        }
      ],
      "name": "acceptBid",
      "outputs": [],
      "stateMutability": "nonpayable",
      "type": "function"
    },
    {
      "inputs": [
        {
          "internalType": "address",
          "name": "ticketCollection",
          "type": "address"
        },
        {
          "internalType": "uint256",
          "name": "ticketID",
          "type": "uint256"
        }
      ],
      "name": "delistTicket",
      "outputs": [],
      "stateMutability": "nonpayable",
      "type": "function"
    },
    {
      "inputs": [
        {
          "internalType": "address",
          "name": "ticketCollection",
          "type": "address"
        },
        {
          "internalType": "uint256",
          "name": "ticketID",
          "type": "uint256"
        }
      ],
      "name": "getHighestBid",
      "outputs": [
        {
          "internalType": "uint256",
          "name": "",
          "type": "uint256"
        }
      ],
      "stateMutability": "view",
      "type": "function"
    },
    {
      "inputs": [
        {
          "internalType": "address",
          "name": "ticketCollection",
          "type": "address"
        },
        {
          "internalType": "uint256",
          "name": "ticketID",
          "type": "uint256"
        }
      ],
      "name": "getHighestBidder",
      "outputs": [
        {
          "internalType": "address",
          "name": "",
          "type": "address"
        }
      ],
      "stateMutability": "view",
      "type": "function"
    },
    {
      "inputs": [
        {
          "internalType": "address",
          "name": "ticketCollection",
          "type": "address"
        },
        {
          "internalType": "uint256",
          "name": "ticketID",
          "type": "uint256"
        },
        {
          "internalType": "uint256",
          "name": "price",
          "type": "uint256"
        }
      ],
      "name": "listTicket",
      "outputs": [],
      "stateMutability": "nonpayable",
      "type": "function"
    },
    {
      "inputs": [],
      "name": "purchaseToken",
      "outputs": [
        {
          "internalType": "contract IERC20",
          "name": "",
          "type": "address"
        }
      ],
      "stateMutability": "view",
      "type": "function"
    },
    {
      "inputs": [
        {
          "internalType": "address",
          "name": "ticketCollection",
          "type": "address"
        },
        {
          "internalType": "uint256",
          "name": "ticketID",
          "type": "uint256"
        },
        {
          "internalType": "uint256",
          "name": "bidAmount",
          "type": "uint256"
        },
        {
          "internalType": "string",
          "name": "newName",
          "type": "string"
        }
      ],
      "name": "submitBid",
      "outputs": [],
      "stateMutability": "nonpayable",
      "type": "function"
    },
    {
      "inputs": [
        {
          "internalType": "address",
          "name": "",
          "type": "address"
        },
        {
          "internalType": "uint256",
          "name": "",
          "type": "uint256"
        }
      ],
      "name": "ticketBids",
      "outputs": [
        {
          "internalType": "string",
          "name": "name",
          "type": "string"
        },
        {
          "internalType": "address",
          "name": "bidder",
          "type": "address"
        },
        {
          "internalType": "uint256",
          "name": "amount",
          "type": "uint256"
        }
      ],
      "stateMutability": "view",
      "type": "function"
    }
  ],
  "bytecode": {
    "object": "0x608060405234801561001057600080fd5b5060405161170638038061170683398101604081905261002f91610054565b600080546001600160a01b0319166001600160a01b0392909216919091179055610084565b60006020828403121561006657600080fd5b81516001600160a01b038116811461007d57600080fd5b9392505050565b611673806100936000396000f3fe608060405234801561001057600080fd5b50600436106100935760003560e01c8063955a5a7611610066578063955a5a761461012e5780639b4f1cbf14610141578063a670a9b4146101a5578063a95c4d62146101f6578063f489b89a1461020957600080fd5b80631d66b15c14610098578063793bba6c146100ad5780638226508d146100c0578063945703091461010c575b600080fd5b6100ab6100a6366004611344565b61021c565b005b6100ab6100bb366004611379565b610570565b6100f96100ce36600461140f565b6001600160a01b03919091166000908152600160209081526040808320938352929052206002015490565b6040519081526020015b60405180910390f35b61011f61011a36600461140f565b6109aa565b60405161010393929190611488565b6100ab61013c36600461140f565b610a69565b61017e61014f3660046114b6565b60026020819052600091825260409091208054600182015491909201546001600160a01b039092169160ff1683565b604080516001600160a01b0390941684526020840192909252151590820152606001610103565b6101de6101b336600461140f565b6001600160a01b03918216600090815260016020818152604080842094845293905291902001541690565b6040516001600160a01b039091168152602001610103565b6000546101de906001600160a01b031681565b6100ab61021736600461140f565b610ef8565b60405163dbacc23760e01b815260048101839052839033906001600160a01b0383169063dbacc23790602401602060405180830381865afa158015610265573d6000803e3d6000fd5b505050506040513d601f19601f8201168201806040525081019061028991906114da565b6001600160a01b0316146102e45760405162461bcd60e51b815260206004820152601a60248201527f43616c6c6572206973206e6f74207469636b6574206f776e657200000000000060448201526064015b60405180910390fd5b6040516306b0362b60e21b8152600481018490526001600160a01b03821690631ac0d8ac90602401602060405180830381865afa158015610329573d6000803e3d6000fd5b505050506040513d601f19601f8201168201806040525081019061034d91906114f7565b156103925760405162461bcd60e51b8152602060048201526015602482015274151a58dad95d08185b1c9958591e481b1a5cdd1959605a1b60448201526064016102db565b6040516323b872dd60e01b81526001600160a01b038216906323b872dd906103c290339030908890600401611519565b600060405180830381600087803b1580156103dc57600080fd5b505af11580156103f0573d6000803e3d6000fd5b505060405163095ea7b360e01b8152306004820152602481018690526001600160a01b038416925063095ea7b39150604401600060405180830381600087803b15801561043c57600080fd5b505af1158015610450573d6000803e3d6000fd5b50506040805160608082018352338252602080830188815260018486018181526001600160a01b038d8116600081815260028088528a822099518a546001600160a01b031916941693909317895594518885015591519601805460ff191696151596909617909555855160808101875293840182815284528383018290528386018a9052938152928152838320898452815292909120815180519295509093506104fe928492910190611259565b506020828101516001830180546001600160a01b0319166001600160a01b03928316179055604093840151600290930192909255915184815285929187169133917f84d2359781d0cae07f76a233e689a83b58360925f9177ebc367b5233511aab93910160405180910390a450505050565b6001600160a01b03851660009081526002602081905260409091209081015460ff166105d25760405162461bcd60e51b8152602060048201526011602482015270151a58dad95d081b9bdd081b1a5cdd1959607a1b60448201526064016102db565b6001600160a01b038616600090815260016020908152604080832088845290915290206002015484116106355760405162461bcd60e51b815260206004820152600b60248201526a42696420746f6f206c6f7760a81b60448201526064016102db565b6001600160a01b03861660009081526001602090815260408083208884529091528082208151606081019092528054829082906106719061153d565b80601f016020809104026020016040519081016040528092919081815260200182805461069d9061153d565b80156106ea5780601f106106bf576101008083540402835291602001916106ea565b820191906000526020600020905b8154815290600101906020018083116106cd57829003601f168201915b505050918352505060018201546001600160a01b0316602082015260029091015460409182015281015190915015801590610731575060208101516001600160a01b031615155b156107b9576000546020820151604080840151905163a9059cbb60e01b81526001600160a01b039283166004820152602481019190915291169063a9059cbb906044016020604051808303816000875af1158015610793573d6000803e3d6000fd5b505050506040513d601f19601f820116820180604052508101906107b791906114f7565b505b6000546040516323b872dd60e01b81526001600160a01b03909116906323b872dd906107ed90339030908a90600401611519565b6020604051808303816000875af115801561080c573d6000803e3d6000fd5b505050506040513d601f19601f8201168201806040525081019061083091906114f7565b5060005460405163095ea7b360e01b8152306004820152602481018790526001600160a01b039091169063095ea7b3906044016020604051808303816000875af1158015610882573d6000803e3d6000fd5b505050506040513d601f19601f820116820180604052508101906108a691906114f7565b50604051806060016040528085858080601f016020809104026020016040519081016040528093929190818152602001838380828437600092018290525093855250503360208085019190915260409384018a90526001600160a01b038c168352600181528383208b845281529290912083518051919361092c93508492910190611259565b5060208201516001820180546001600160a01b0319166001600160a01b039283161790556040928301516002909201919091559051879189169033907f85f2e66743c0791ddd157dc7ab9a9649a6839e2d79276c17187da6c0a3a860cd90610999908a908a908a90611578565b60405180910390a450505050505050565b60016020908152600092835260408084209091529082529020805481906109d09061153d565b80601f01602080910402602001604051908101604052809291908181526020018280546109fc9061153d565b8015610a495780601f10610a1e57610100808354040283529160200191610a49565b820191906000526020600020905b815481529060010190602001808311610a2c57829003601f168201915b50505050600183015460029093015491926001600160a01b031691905083565b6001600160a01b03808316600090815260026020818152604092839020835160608101855281549095168086526001820154928601929092529091015460ff161515918301919091523314610b005760405162461bcd60e51b815260206004820152601a60248201527f4f6e6c792073656c6c65722063616e206163636570742062696400000000000060448201526064016102db565b6001600160a01b0383166000908152600160209081526040808320858452909152808220815160608101909252805482908290610b3c9061153d565b80601f0160208091040260200160405190810160405280929190818152602001828054610b689061153d565b8015610bb55780601f10610b8a57610100808354040283529160200191610bb5565b820191906000526020600020905b815481529060010190602001808311610b9857829003601f168201915b505050918352505060018201546001600160a01b03166020820152600290910154604091820152810151909150600090610bee9061123a565b905060008054906101000a90046001600160a01b03166001600160a01b031663a9059cbb866001600160a01b03166302d05d3f6040518163ffffffff1660e01b8152600401602060405180830381865afa158015610c50573d6000803e3d6000fd5b505050506040513d601f19601f82011682018060405250810190610c7491906114da565b6040516001600160e01b031960e084901b1681526001600160a01b039091166004820152602481018490526044016020604051808303816000875af1158015610cc1573d6000803e3d6000fd5b505050506040513d601f19601f82011682018060405250810190610ce591906114f7565b50600054835160408401516001600160a01b039092169163a9059cbb9190610d0e9085906115c4565b6040516001600160e01b031960e085901b1681526001600160a01b03909216600483015260248201526044016020604051808303816000875af1158015610d59573d6000803e3d6000fd5b505050506040513d601f19601f82011682018060405250810190610d7d91906114f7565b508151604051637b615c4b60e01b81526001600160a01b03871691637b615c4b91610dac9188916004016115db565b600060405180830381600087803b158015610dc657600080fd5b505af1158015610dda573d6000803e3d6000fd5b5050505060208201516040516323b872dd60e01b81526001600160a01b038716916323b872dd91610e119130918990600401611519565b600060405180830381600087803b158015610e2b57600080fd5b505af1158015610e3f573d6000803e3d6000fd5b5050505083856001600160a01b031683602001516001600160a01b03167fe617cb81f1ecf15453e5ac151d07668051d9faa4f959e6d2dffa2f4327a155458560400151604051610ea091815260406020820181905260009082015260600190565b60405180910390a46001600160a01b0385166000908152600160209081526040808320878452909152812090610ed682826112dd565b506001810180546001600160a01b031916905560006002909101555050505050565b6001600160a01b03808316600090815260026020818152604092839020835160608101855281549095168552600181015491850191909152015460ff161515908201819052610f7d5760405162461bcd60e51b8152602060048201526011602482015270151a58dad95d081b9bdd081b1a5cdd1959607a1b60448201526064016102db565b80516001600160a01b03163314610fcf5760405162461bcd60e51b815260206004820152601660248201527513db9b1e481cd95b1b195c8818d85b8819195b1a5cdd60521b60448201526064016102db565b6001600160a01b038316600090815260016020908152604080832085845290915280822081516060810190925280548290829061100b9061153d565b80601f01602080910402602001604051908101604052809291908181526020018280546110379061153d565b80156110845780601f1061105957610100808354040283529160200191611084565b820191906000526020600020905b81548152906001019060200180831161106757829003601f168201915b505050918352505060018201546001600160a01b03166020820152600290910154604091820152810151909150158015906110cb575060208101516001600160a01b031615155b15611153576000546020820151604080840151905163a9059cbb60e01b81526001600160a01b039283166004820152602481019190915291169063a9059cbb906044016020604051808303816000875af115801561112d573d6000803e3d6000fd5b505050506040513d601f19601f8201168201806040525081019061115191906114f7565b505b81516040516323b872dd60e01b81526001600160a01b038616916323b872dd916111839130918890600401611519565b600060405180830381600087803b15801561119d57600080fd5b505af11580156111b1573d6000803e3d6000fd5b5050506001600160a01b0385166000908152600160209081526040808320878452909152812091506111e382826112dd565b506001810180546001600160a01b03191690556000600290910181905560405184916001600160a01b038716917f9c74d776e5765f64303c82b9dceb594cdf4d4e054e6530a839715a276532e0ab9190a350505050565b600060646112498360056115fc565b611253919061161b565b92915050565b8280546112659061153d565b90600052602060002090601f01602090048101928261128757600085556112cd565b82601f106112a057805160ff19168380011785556112cd565b828001600101855582156112cd579182015b828111156112cd5782518255916020019190600101906112b2565b506112d992915061131a565b5090565b5080546112e99061153d565b6000825580601f106112f9575050565b601f016020900490600052602060002090810190611317919061131a565b50565b5b808211156112d9576000815560010161131b565b6001600160a01b038116811461131757600080fd5b60008060006060848603121561135957600080fd5b83356113648161132f565b95602085013595506040909401359392505050565b60008060008060006080868803121561139157600080fd5b853561139c8161132f565b94506020860135935060408601359250606086013567ffffffffffffffff808211156113c757600080fd5b818801915088601f8301126113db57600080fd5b8135818111156113ea57600080fd5b8960208285010111156113fc57600080fd5b9699959850939650602001949392505050565b6000806040838503121561142257600080fd5b823561142d8161132f565b946020939093013593505050565b6000815180845260005b8181101561146157602081850181015186830182015201611445565b81811115611473576000602083870101525b50601f01601f19169290920160200192915050565b60608152600061149b606083018661143b565b6001600160a01b039490941660208301525060400152919050565b6000602082840312156114c857600080fd5b81356114d38161132f565b9392505050565b6000602082840312156114ec57600080fd5b81516114d38161132f565b60006020828403121561150957600080fd5b815180151581146114d357600080fd5b6001600160a01b039384168152919092166020820152604081019190915260600190565b600181811c9082168061155157607f821691505b6020821081141561157257634e487b7160e01b600052602260045260246000fd5b50919050565b83815260406020820152816040820152818360608301376000818301606090810191909152601f909201601f1916010192915050565b634e487b7160e01b600052601160045260246000fd5b6000828210156115d6576115d66115ae565b500390565b8281526040602082015260006115f4604083018461143b565b949350505050565b6000816000190483118215151615611616576116166115ae565b500290565b60008261163857634e487b7160e01b600052601260045260246000fd5b50049056fea2646970667358221220fdc9c5f8f16bf3a7d41ded9210383e572731f5c6e5c56e65bc4ea9a7849a899b64736f6c634300080a0033",
    "linkReferences": {}
  },
  "methodIdentifiers": {
    "List(address)": "9b4f1cbf",
    "acceptBid(address,uint256)": "955a5a76",
    "delistTicket(address,uint256)": "f489b89a",
    "getHighestBid(address,uint256)": "8226508d",
    "getHighestBidder(address,uint256)": "a670a9b4",
    "listTicket(address,uint256,uint256)": "1d66b15c",
    "purchaseToken()": "a95c4d62",
    "submitBid(address,uint256,uint256,string)": "793bba6c",
    "ticketBids(address,uint256)": "94570309"
  },
  "id": 19
}